{
  "contractName": "FoodChain",
  "abi": [
    {
      "inputs": [],
      "stateMutability": "nonpayable",
      "type": "constructor"
    },
    {
      "anonymous": false,
      "inputs": [
        {
          "indexed": false,
          "internalType": "address",
          "name": "fpsId",
          "type": "address"
        },
        {
          "indexed": false,
          "internalType": "uint256",
          "name": "rice",
          "type": "uint256"
        },
        {
          "indexed": false,
          "internalType": "uint256",
          "name": "wheat",
          "type": "uint256"
        }
      ],
      "name": "ChangedStock",
      "type": "event"
    },
    {
      "anonymous": false,
      "inputs": [
        {
          "indexed": false,
          "internalType": "address",
          "name": "id",
          "type": "address"
        }
      ],
      "name": "verified",
      "type": "event"
    },
    {
      "inputs": [
        {
          "internalType": "address",
          "name": "",
          "type": "address"
        }
      ],
      "name": "RegisteredBeneficiaryMapping",
      "outputs": [
        {
          "internalType": "bool",
          "name": "",
          "type": "bool"
        }
      ],
      "stateMutability": "view",
      "type": "function",
      "constant": true
    },
    {
      "inputs": [
        {
          "internalType": "address",
          "name": "",
          "type": "address"
        }
      ],
      "name": "RegisteredFpsMapping",
      "outputs": [
        {
          "internalType": "bool",
          "name": "",
          "type": "bool"
        }
      ],
      "stateMutability": "view",
      "type": "function",
      "constant": true
    },
    {
      "inputs": [
        {
          "internalType": "address",
          "name": "",
          "type": "address"
        },
        {
          "internalType": "uint256",
          "name": "",
          "type": "uint256"
        }
      ],
      "name": "beneficiaryMapping",
      "outputs": [
        {
          "internalType": "address",
          "name": "fpsId",
          "type": "address"
        },
        {
          "internalType": "address",
          "name": "benId",
          "type": "address"
        },
        {
          "internalType": "uint256",
          "name": "rice",
          "type": "uint256"
        },
        {
          "internalType": "uint256",
          "name": "wheat",
          "type": "uint256"
        }
      ],
      "stateMutability": "view",
      "type": "function",
      "constant": true
    },
    {
      "inputs": [
        {
          "internalType": "address",
          "name": "",
          "type": "address"
        }
      ],
      "name": "distributingFps",
      "outputs": [
        {
          "internalType": "uint256",
          "name": "rice",
          "type": "uint256"
        },
        {
          "internalType": "uint256",
          "name": "wheat",
          "type": "uint256"
        }
      ],
      "stateMutability": "view",
      "type": "function",
      "constant": true
    },
    {
      "inputs": [
        {
          "internalType": "address",
          "name": "ben_id",
          "type": "address"
        }
      ],
      "name": "registerBeneficiary",
      "outputs": [],
      "stateMutability": "nonpayable",
      "type": "function"
    },
    {
      "inputs": [
        {
          "internalType": "address",
          "name": "fps_id",
          "type": "address"
        }
      ],
      "name": "registerFps",
      "outputs": [],
      "stateMutability": "nonpayable",
      "type": "function"
    },
    {
      "inputs": [
        {
          "internalType": "address",
          "name": "fpsId",
          "type": "address"
        },
        {
          "internalType": "uint256",
          "name": "rice",
          "type": "uint256"
        },
        {
          "internalType": "uint256",
          "name": "wheat",
          "type": "uint256"
        }
      ],
      "name": "foodGrainsAllocationToFPS",
      "outputs": [],
      "stateMutability": "nonpayable",
      "type": "function"
    },
    {
      "inputs": [],
      "name": "getGrainAmount",
      "outputs": [
        {
          "internalType": "uint256",
          "name": "",
          "type": "uint256"
        },
        {
          "internalType": "uint256",
          "name": "",
          "type": "uint256"
        }
      ],
      "stateMutability": "view",
      "type": "function",
      "constant": true
    },
    {
      "inputs": [
        {
          "internalType": "address",
          "name": "ben_id",
          "type": "address"
        },
        {
          "internalType": "address",
          "name": "fps_id",
          "type": "address"
        }
      ],
      "name": "verifyBenificiary",
      "outputs": [],
      "stateMutability": "nonpayable",
      "type": "function"
    },
    {
      "inputs": [
        {
          "internalType": "address",
          "name": "ben_id",
          "type": "address"
        },
        {
          "internalType": "address",
          "name": "fps_id",
          "type": "address"
        },
        {
          "internalType": "uint256",
          "name": "rice",
          "type": "uint256"
        },
        {
          "internalType": "uint256",
          "name": "wheat",
          "type": "uint256"
        }
      ],
      "name": "sellGrains",
      "outputs": [],
      "stateMutability": "nonpayable",
      "type": "function"
    }
  ],
  "bytecode": "0x60806040526000600555600060065534801561001a57600080fd5b50336000806101000a81548173ffffffffffffffffffffffffffffffffffffffff021916908373ffffffffffffffffffffffffffffffffffffffff160217905550610ff78061006a6000396000f3fe608060405234801561001057600080fd5b506004361061009e5760003560e01c80637d05cd30116100665780637d05cd301461015d578063a90dfd6c14610179578063bc4ba6af146101aa578063cdd8b2b2146101c6578063f0b053c8146101e25761009e565b8063047d666a146100a357806307f93bda146100bf578063248f6542146100db57806364a22e4a1461010b57806366bbf8a71461013e575b600080fd5b6100bd60048036038101906100b89190610b0e565b610212565b005b6100d960048036038101906100d49190610b75565b610408565b005b6100f560048036038101906100f09190610bb5565b6104f2565b6040516101029190610bfd565b60405180910390f35b61012560048036038101906101209190610c18565b610512565b6040516101359493929190610c76565b60405180910390f35b61014661059f565b604051610154929190610cbb565b60405180910390f35b61017760048036038101906101729190610ce4565b6105b0565b005b610193600480360381019061018e9190610bb5565b610746565b6040516101a1929190610cbb565b60405180910390f35b6101c460048036038101906101bf9190610bb5565b61076a565b005b6101e060048036038101906101db9190610bb5565b6108e0565b005b6101fc60048036038101906101f79190610bb5565b610a55565b6040516102099190610bfd565b60405180910390f35b816005546102209190610d66565b600581905550806006546102349190610d66565b60068190555060405180604001604052806005548152602001600654815250600360008573ffffffffffffffffffffffffffffffffffffffff1673ffffffffffffffffffffffffffffffffffffffff1681526020019081526020016000206000820151816000015560208201518160010155905050600460008573ffffffffffffffffffffffffffffffffffffffff1673ffffffffffffffffffffffffffffffffffffffff16815260200190815260200160002060405180608001604052808573ffffffffffffffffffffffffffffffffffffffff1681526020018673ffffffffffffffffffffffffffffffffffffffff16815260200184815260200183815250908060018154018082558091505060019003906000526020600020906004020160009091909190915060008201518160000160006101000a81548173ffffffffffffffffffffffffffffffffffffffff021916908373ffffffffffffffffffffffffffffffffffffffff16021790555060208201518160010160006101000a81548173ffffffffffffffffffffffffffffffffffffffff021916908373ffffffffffffffffffffffffffffffffffffffff1602179055506040820151816002015560608201518160030155505050505050565b600260008273ffffffffffffffffffffffffffffffffffffffff1673ffffffffffffffffffffffffffffffffffffffff16815260200190815260200160002060009054906101000a900460ff1661045e57600080fd5b60011515600160008473ffffffffffffffffffffffffffffffffffffffff1673ffffffffffffffffffffffffffffffffffffffff16815260200190815260200160002060009054906101000a900460ff161515036104ee577f0db065f4e2dd3afa8314ba1625b534013ae29d6976302554686c527502c96058826040516104e59190610d9a565b60405180910390a15b5050565b60016020528060005260406000206000915054906101000a900460ff1681565b6004602052816000526040600020818154811061052e57600080fd5b9060005260206000209060040201600091509150508060000160009054906101000a900473ffffffffffffffffffffffffffffffffffffffff16908060010160009054906101000a900473ffffffffffffffffffffffffffffffffffffffff16908060020154908060030154905084565b600080600554600654915091509091565b60008054906101000a900473ffffffffffffffffffffffffffffffffffffffff1673ffffffffffffffffffffffffffffffffffffffff163373ffffffffffffffffffffffffffffffffffffffff161461060857600080fd5b6000600360008573ffffffffffffffffffffffffffffffffffffffff1673ffffffffffffffffffffffffffffffffffffffff16815260200190815260200160002060405180604001604052908160008201548152602001600182015481525050905082816000015161067a9190610db5565b6005819055508181602001516106909190610db5565b60068190555060405180604001604052806005548152602001600654815250600360008673ffffffffffffffffffffffffffffffffffffffff1673ffffffffffffffffffffffffffffffffffffffff16815260200190815260200160002060008201518160000155602082015181600101559050507f09adb1a138aeabaf1091a22e2b7a7aa2f0a53979ee3f1c00eb38cf78b77489e584848460405161073893929190610de9565b60405180910390a150505050565b60036020528060005260406000206000915090508060000154908060010154905082565b60008054906101000a900473ffffffffffffffffffffffffffffffffffffffff1673ffffffffffffffffffffffffffffffffffffffff163373ffffffffffffffffffffffffffffffffffffffff16146107f8576040517f08c379a00000000000000000000000000000000000000000000000000000000081526004016107ef90610ea3565b60405180910390fd5b600260008273ffffffffffffffffffffffffffffffffffffffff1673ffffffffffffffffffffffffffffffffffffffff16815260200190815260200160002060009054906101000a900460ff1615610885576040517f08c379a000000000000000000000000000000000000000000000000000000000815260040161087c90610f0f565b60405180910390fd5b6001600260008373ffffffffffffffffffffffffffffffffffffffff1673ffffffffffffffffffffffffffffffffffffffff16815260200190815260200160002060006101000a81548160ff02191690831515021790555050565b60008054906101000a900473ffffffffffffffffffffffffffffffffffffffff1673ffffffffffffffffffffffffffffffffffffffff163373ffffffffffffffffffffffffffffffffffffffff161461096e576040517f08c379a000000000000000000000000000000000000000000000000000000000815260040161096590610fa1565b60405180910390fd5b600160008273ffffffffffffffffffffffffffffffffffffffff1673ffffffffffffffffffffffffffffffffffffffff16815260200190815260200160002060009054906101000a900460ff16156109fb576040517f08c379a00000000000000000000000000000000000000000000000000000000081526004016109f290610f0f565b60405180910390fd5b60018060008373ffffffffffffffffffffffffffffffffffffffff1673ffffffffffffffffffffffffffffffffffffffff16815260200190815260200160002060006101000a81548160ff02191690831515021790555050565b60026020528060005260406000206000915054906101000a900460ff1681565b600080fd5b600073ffffffffffffffffffffffffffffffffffffffff82169050919050565b6000610aa582610a7a565b9050919050565b610ab581610a9a565b8114610ac057600080fd5b50565b600081359050610ad281610aac565b92915050565b6000819050919050565b610aeb81610ad8565b8114610af657600080fd5b50565b600081359050610b0881610ae2565b92915050565b60008060008060808587031215610b2857610b27610a75565b5b6000610b3687828801610ac3565b9450506020610b4787828801610ac3565b9350506040610b5887828801610af9565b9250506060610b6987828801610af9565b91505092959194509250565b60008060408385031215610b8c57610b8b610a75565b5b6000610b9a85828601610ac3565b9250506020610bab85828601610ac3565b9150509250929050565b600060208284031215610bcb57610bca610a75565b5b6000610bd984828501610ac3565b91505092915050565b60008115159050919050565b610bf781610be2565b82525050565b6000602082019050610c126000830184610bee565b92915050565b60008060408385031215610c2f57610c2e610a75565b5b6000610c3d85828601610ac3565b9250506020610c4e85828601610af9565b9150509250929050565b610c6181610a9a565b82525050565b610c7081610ad8565b82525050565b6000608082019050610c8b6000830187610c58565b610c986020830186610c58565b610ca56040830185610c67565b610cb26060830184610c67565b95945050505050565b6000604082019050610cd06000830185610c67565b610cdd6020830184610c67565b9392505050565b600080600060608486031215610cfd57610cfc610a75565b5b6000610d0b86828701610ac3565b9350506020610d1c86828701610af9565b9250506040610d2d86828701610af9565b9150509250925092565b7f4e487b7100000000000000000000000000000000000000000000000000000000600052601160045260246000fd5b6000610d7182610ad8565b9150610d7c83610ad8565b9250828203905081811115610d9457610d93610d37565b5b92915050565b6000602082019050610daf6000830184610c58565b92915050565b6000610dc082610ad8565b9150610dcb83610ad8565b9250828201905080821115610de357610de2610d37565b5b92915050565b6000606082019050610dfe6000830186610c58565b610e0b6020830185610c67565b610e186040830184610c67565b949350505050565b600082825260208201905092915050565b7f596f7520617265206e6f7420617574686f726973656420746f2072656769737460008201527f6572204650530000000000000000000000000000000000000000000000000000602082015250565b6000610e8d602683610e20565b9150610e9882610e31565b604082019050919050565b60006020820190508181036000830152610ebc81610e80565b9050919050565b7f596f752061726520616c72656164792072656769737465726564000000000000600082015250565b6000610ef9601a83610e20565b9150610f0482610ec3565b602082019050919050565b60006020820190508181036000830152610f2881610eec565b9050919050565b7f596f7520617265206e6f7420617574686f726973656420746f2072656769737460008201527f657220612062656e696669636961727900000000000000000000000000000000602082015250565b6000610f8b603083610e20565b9150610f9682610f2f565b604082019050919050565b60006020820190508181036000830152610fba81610f7e565b905091905056fea2646970667358221220c0bdd465d78e0a90811f4cbb3a1af95eb3c139a0edeaedae459693463dd241e564736f6c63430008110033",
  "immutableReferences": {},
  "source": "//SPDX-License-Identifier: UNLICENSED\npragma solidity >=0.4.21 <0.9.0;\n\ncontract FoodChain {\n\n\n    address gov;\n\n    modifier onlyOwner() {\n        require(msg.sender == gov);\n        _;\n    }\n\n    constructor(){\n       gov = msg.sender;\n    }\n\n    // struct FoodGrains{\n    //     string name;\n    //     uint quantity;\n    //     uint price;\n    // }\n\n    struct asset_amount  {\n       uint rice;\n       uint wheat;\n       \n    }\n\n    struct beneficiary{\n       address fpsId;\n       address benId;\n       uint rice;\n       uint wheat;\n \n   }\n\n    event ChangedStock\n    (\n        address fpsId,\n        uint rice,\n        uint wheat\n\n    );\n\n\n\n    \n\n    mapping(address => bool) public RegisteredBeneficiaryMapping;\n    mapping(address => bool) public RegisteredFpsMapping;\n    // FoodGrains[] public food;\n    mapping(address => asset_amount) public distributingFps;\n    mapping(address => beneficiary[]) public beneficiaryMapping;\n    event verified(address id);\n\n    uint  allocatedRice =0;\n    uint  allocatedWheat =0;\n \n    function registerBeneficiary(address ben_id) public {\n\n       if(msg.sender != gov) revert('You are not authorised to register a benificiary');\n       if(RegisteredBeneficiaryMapping[ben_id]) revert('You are already registered'); \n       RegisteredBeneficiaryMapping[ben_id] = true;\n\n    }\n\n    function registerFps(address fps_id) public  {\n\n        if(msg.sender != gov) revert('You are not authorised to register FPS');\n        if(RegisteredFpsMapping[fps_id]) revert('You are already registered');\n        RegisteredFpsMapping[fps_id] = true;\n\n    }\n\n    function foodGrainsAllocationToFPS(address fpsId, uint rice,uint wheat) public onlyOwner {\n       \n       asset_amount memory foodGrains = distributingFps[fpsId];\n\n       allocatedRice = foodGrains.rice + rice;\n       allocatedWheat  = foodGrains.wheat + wheat;\n       \n       distributingFps[fpsId] = asset_amount(allocatedRice,allocatedWheat);\n       emit ChangedStock(fpsId,rice,wheat);\n   \n    }\n\n    function getGrainAmount() public  view returns (uint,uint){\n        return (allocatedRice, allocatedWheat);\n    }\n\n    function verifyBenificiary (address ben_id, address fps_id) public{\n       if(!RegisteredFpsMapping[fps_id]) revert();\n            if(RegisteredBeneficiaryMapping[ben_id] == true)\n                emit verified(ben_id); \n    }\n\n    function sellGrains(address ben_id, address fps_id, uint rice, uint wheat)public {\n\n        allocatedRice = allocatedRice - rice;\n        allocatedWheat = allocatedWheat - wheat;\n\n        distributingFps[fps_id] = asset_amount(allocatedRice,allocatedWheat);\n        beneficiaryMapping[ben_id].push(beneficiary(fps_id,ben_id, rice,wheat));\n    }\n\n\n}",
  "sourcePath": "/Users/apple/Desktop/Blockchain_project/contracts/FoodChain.sol",
  "compiler": {
    "name": "solc",
    "version": "0.8.17+commit.8df45f5f.Emscripten.clang"
  },
  "schemaVersion": "3.4.10",
  "updatedAt": "2022-11-11T17:13:18.421Z",
  "networkType": "ethereum",
  "devdoc": {
    "kind": "dev",
    "methods": {},
    "version": 1
  },
  "userdoc": {
    "kind": "user",
    "methods": {},
    "version": 1
  }
}